:100000000C943A000C944A030C9473030C949C03D4
:100010000C9457000C9457000C9457000C94570004
:100020000C9457000C9457000C946F050C943505F4
:100030000C9457000C9457000C9457000C945700E4
:100040000C9457000C9457000C9457000C945700D4
:100050000C945700EC03CF03EE03D103D303D50375
:10006000D703D903DB03DD03DF03E103E303E50388
:10007000E703E90311241FBECFE5D8E0DEBFCDBF03
:1000800010E0A0E6B0E0E2EDFBE002C005900D92CA
:10009000A83BB107D9F720E0A8EBB0E001C01D9262
:1000A000A53DB207E1F70E94C5040C94E7050C9446
:1000B00000008091B800833020F48F5F8093B800F7
:1000C000089581E08093B800089587B38FEF87BBD0
:1000D00088B3806F88BB80E80E94450480E690E08A
:1000E0000E94B0040E94F0038093C400682F84E053
:1000F0000E94D8042FEF80E792E02150804090408A
:10010000E1F700C000000E94F0038093C300682F55
:1001100085E00E94D8042FEF80E792E021508040D4
:100120009040E1F700C000000E94F0038093C200FD
:10013000682F86E00E94D8042FEF80E792E02150DC
:1001400080409040E1F700C000000E94F0038093DF
:10015000C100682F87E00E94D8042FEF80E792E06B
:10016000215080409040E1F700C0000081E00E94F3
:100170004504089587B38FEF87BB88B3806F88BB32
:1001800080E80E94450481E790E00E94B0040E944C
:10019000F0038093BC00682F84E00E94D8042FEF06
:1001A00080E792E0215080409040E1F700C00000DD
:1001B0000E94F0038093BB00682F85E00E94D80462
:1001C0002FEF80E792E0215080409040E1F700C09F
:1001D00000000E94F0038093BA00682F86E00E941E
:1001E000D8042FEF80E792E0215080409040E1F763
:1001F00000C000000E94F0038093B900682F87E0E0
:100200000E94D8042FEF80E792E021508040904078
:10021000E1F700C0000081E00E944504089580914C
:10022000C100893020F48F5F8093C10037C0809176
:10023000C200853030F41092C1008F5F8093C200FD
:100240002DC08091C300893028F49091C400923071
:10025000E8F506C0833060F49091C400923041F418
:100260001092C1001092C2008F5F8093C30016C02D
:100270008091C400823050F41092C1001092C200EC
:100280001092C3008F5F8093C40008C01092C10019
:100290001092C2001092C3001092C4008091B90065
:1002A000882321F081508093B90008958091BA008D
:1002B000882321F081508093BA0008958091BB007B
:1002C000882359F081508093BB0008958330F0F665
:1002D0009091C4009230D1F6C3CF089583E80E9474
:1002E000450481E890E00E94B0046091C40084E07D
:1002F0000E94F7046091C30085E00E94F7046091BA
:10030000C20086E00E94F7046091C10087E00E946D
:10031000F704089580E80E9445048CE890E00E946C
:10032000B0046091BC0084E00E94F7046091BB00BF
:1003300085E00E94F7046091BA0086E00E94F7040D
:100340006091B90087E00E94F70408950F931F930E
:10035000CF93DF93CDB7DEB764970FB6F894DEBFC7
:100360000FBECDBF87B38FEF87BB88B3806F88BBCD
:1003700081E80E9445048BE990E00E94B0040E944D
:10038000F0038093C000682F84E00E94D8042FEF10
:1003900080E792E0215080409040E1F700C00000EB
:1003A0000E94F0038093BF00682F85E00E94D8046C
:1003B0002FEF80E792E0215080409040E1F700C0AD
:1003C00000000E94F0038093BE00682F86E00E9428
:1003D000D8042FEF80E792E0215080409040E1F771
:1003E00000C000000E94F0038093BD00682F87E0EA
:1003F0000E94D8042FEF80E792E021508040904087
:10040000E1F700C000002091BE0030E08901000F3C
:10041000111F220F331F220F331F220F331F020F12
:10042000131F8091BD00080F111D2091C00030E006
:10043000C901880F991F220F331F220F331F220F6C
:10044000331F820F931F2091BF004AE0BE016F5FF0
:100450007F4F820F911D0E94B20581E00E944504EA
:1004600080EC0E9445048CEA90E00E94B004CE012A
:1004700001960E94B0048AE30E9487044AE0BE010C
:100480006F5F7F4FC8010E94B205CE0101960E94A6
:10049000B00464960FB6F894DEBF0FBECDBFDF91F7
:1004A000CF911F910F9108958F9A8A98929A909167
:1004B000C0008091C400981322C09091BF00809129
:1004C000C30098131CC09091BE008091C200981385
:1004D00016C09091BD008091C100981310C0829BFE
:1004E00005C0979A0E946E018299FBCF979810924F
:1004F000C0001092BF001092BE001092BD0008957F
:10050000CF938B98939A60E081E00E94DE0289E5A8
:1005100090E00E9443030E9441048091B800811141
:100520000CC00E9465008091B800811106C00E9435
:100530006E018091B8008823D1F38091B80081309A
:1005400071F40E94A6018091B800813041F40E94AC
:100550006E010E9454028091B8008130C1F38091F5
:10056000B800823039F58F9A8A98929A0E94BA0020
:10057000C3E013C00E948A018091B90081110DC0AF
:10058000829B05C0979A0E948A018299FBCF979817
:1005900081E00E944504C093B8008091B800823089
:1005A00049F3833049F40E946E018091B800833092
:1005B000D1F302C08330B9F3CF910895813061F156
:1005C00020F0823009F44FC00895613069F028F0BE
:1005D0006230C1F0633079F01BC085B7816085BFA0
:1005E00085B7826085BF14C085B78E7F85BF85B70C
:1005F000826085BF0DC085B7816085BF85B78D7F5F
:1006000085BF06C085B78E7F85BF85B78D7F85BFC7
:100610008BB780648BBF0895613069F028F0623039
:10062000C1F0633079F01BC085B7816085BF85B7A5
:10063000826085BF14C085B78E7F85BF85B7826015
:1006400085BF0DC085B7816085BF85B78D7F85BFAC
:1006500006C085B78E7F85BF85B78D7F85BF8BB779
:1006600080688BBF0895662319F0613029F007C0B8
:1006700084B7806484BF03C084B78F7B84BF8BB78B
:1006800080628BBF0895009721F09093C8008093FB
:10069000C70008951F920F920FB60F9211242F9347
:1006A0003F934F935F936F937F938F939F93AF93FA
:1006B000BF93EF93FF93E091C900F091CA00309788
:1006C00009F00995FF91EF91BF91AF919F918F91A3
:1006D0007F916F915F914F913F912F910F900FBE3E
:1006E0000F901F9018951F920F920FB60F92112422
:1006F0002F933F934F935F936F937F938F939F932A
:10070000AF93BF93EF93FF93E091C700F091C800C0
:10071000309709F00995FF91EF91BF91AF919F91AB
:100720008F917F916F915F914F913F912F910F909A
:100730000FBE0F901F9018951F920F920FB60F9239
:1007400011242F933F934F935F936F937F938F93D6
:100750009F93AF93BF93EF93FF93E091C500F09108
:10076000C600309709F00995FF91EF91BF91AF91C5
:100770009F918F917F916F915F914F913F912F91B9
:100780000F900FBE0F901F90189590E0FC013197CD
:10079000E031F10500F5E65DFF4F0C94AC0588E013
:1007A00008958FE2089584E0089585E0089586E035
:1007B00008958AE2089581E0089582E0089583E033
:1007C00008958DE2089583E5089580E008958DE30E
:1007D00008958BE20895089587E0089589E00895CB
:1007E000CF93DF9384B3806F84BB84B3807F84BB5B
:1007F00085B38F6085BBE1E0F0E064E070E0A0E0ED
:1008000095B3906F95BB25B3AF01062E02C0440F80
:10081000551F0A94E2F7942F9095922395BB40E0E0
:1008200050E0842F23B330E0042E02C03595279585
:100830000A94E2F720FD17C0CFE5DAEE2197F1F731
:1008400000C0000023B330E0042E02C03595279588
:100850000A94E2F720FD07C0880F880FAF5F8A0F68
:100860000E94C5030BC04F5F5F4F44305105C9F66E
:10087000AF5F6F5F7F4FA43019F6BFCFDF91CF918D
:1008800008958FB780688FBF08959BB39F70282FFE
:10089000207F922B9BBBD998DA98DB9A32E03A956D
:1008A000F1F700C0DB98EFE8F1E03197F1F700C015
:1008B00000002BB32F70F0E18F9FC0011124822B19
:1008C0008BBBDB9A32E03A95F1F700C0DB988FE9F9
:1008D0009FE00197F1F700C0000008958AB3806F90
:1008E0008ABB8AB38E608ABB8FE39CE90197F1F7DC
:1008F00000C0000082E00E94450488E20E94450496
:1009000081E00E9445048CE00E94450408959BB359
:100910009F70282F207F922B9BBBD99ADA98DB9A65
:1009200032E03A95F1F700C0DB98EFE8F1E031975B
:10093000F1F700C000002BB32F70F0E18F9FC001D2
:100940001124822B8BBBDB9A32E03A95F1F700C081
:10095000DB988FE99FE00197F1F700C00000089550
:10096000CF93DF93EC018881882331F021960E9498
:10097000870489918111FBCF8FE99FE00197F1F7FF
:1009800000C00000DF91CF9108950E946E040E9484
:1009900041040E9413050E941D0580E395E70E9413
:1009A00027058FE091E00E942E050E948002FDCF76
:1009B00048B321E030E0F90102C0EE0FFF1F8A9535
:1009C000E2F7CF019E2F9095492348BB98B3907FC3
:1009D000692B68BBFFEF21EE34E0F150204030403E
:1009E000E1F700C0000098B3892B88BB089548B395
:1009F00021E030E0F90102C0EE0FFF1F8A95E2F717
:100A0000CF019E2F9095492348BB98B3907F692BC7
:100A100068BBEFE0F7E23197F1F700C0000098B350
:100A2000892B88BB089583B78F7B83BF83B788608A
:100A300083BF89B7826089BF089583B7816083BF10
:100A400083B7826083BF83B78B7F83BF089529EF0D
:100A50002CBF9093D0008093CF000895009721F091
:100A60009093D2008093D10008951F920F920FB6F9
:100A70000F9211242F933F934F935F936F937F9324
:100A80008F939F93AF93BF93EF93FF938091CD008C
:100A90009091CE0001969093CE008093CD00813D41
:100AA000934061F412BE1092CE001092CD00E091FE
:100AB000D300F091D400309709F00995FF91EF91A0
:100AC000BF91AF919F918F917F916F915F914F9166
:100AD0003F912F910F900FBE0F901F9018951F926E
:100AE0000F920FB60F9211242F933F934F935F9362
:100AF0006F937F938F939F93AF93BF93EF93FF93E6
:100B00008091CB009091CC0001969093CC00809383
:100B1000CB002091CF003091D0008217930759F479
:100B20001092CC001092CB00E091D100F091D20055
:100B3000309709F00995FF91EF91BF91AF919F9187
:100B40008F917F916F915F914F913F912F910F9076
:100B50000FBE0F901F901895EE0FFF1F0590F49198
:100B6000E02D0994BB274A3031F4992322F4BDE2E9
:100B7000909581959F4F0C94BE05BB27FB0155278F
:100B8000AA27880F991FAA1FA41710F0A41B8395EA
:100B90005051B9F7A05DAA3308F0A95DA193009761
:100BA00079F7B111B1931192CB010C94D705DC0107
:100BB000FC01672F71917723E1F7329704C07C9194
:100BC0006D9370836291AE17BF07C8F30895F894D0
:020BD000FFCF55
:100BD2002053657420796F757220636C6F636B208C
:100BE20000205365742053746F70576174636820DA
:100BF20000436C6F636B206D6F64650053746F709C
:100C02005761746368206D6F6465002053657420BA
:100C1200796F757220616C61726D2000616C617216
:080C22006D206174203A2000EE
:00000001FF
